:100000000C94F6000C9413030C9424030C94350305
:100010000C9446030C9413010C9413010C941301DB
:100020000C9413010C9457030C945D060C949806E1
:100030000C9413010C9413010C9413010C941301F0
:100040000C9413010C9413010C9413010C941301E0
:100050000C9413010C947F030C9413010C94130162
:100060000C9413010C9413010C9413010C941301C0
:100070000C9413010C9413010C9413010C941301B0
:100080000C9413010C9413010C9413010C941301A0
:100090000C9413010C9413010C9413010C94130190
:1000A0000C9413010C9413010C941301F105EE054B
:1000B000EB05E805E505E205DF05DC05D905D60514
:1000C000D305D005CD05CA05C705C405C105BE05C4
:1000D000BB05B805B505B205AF05AC05A905A60574
:1000E000A305A0059D059A059705940591058E0524
:1000F0008B058805850582057F057C0579057605D4
:10010000730570056D056A056705640561055E0583
:100110005B055805550552054F054C054905460533
:10012000430540053D053A05370534053105000115
:10013000000062011200020000740143000300008D
:10014000B7010401030904BB011202030904CF0132
:100150001003030904E101080001C1120180360106
:1001600081361201000202000010C0167A0400015C
:100170000102030109024300020100C03209040028
:100180000001020201000524001001052401010103
:10019000042402060524060001070582031000401E
:1001A00009040100020A00000007050302400000E4
:1001B000070584024000000403090412034A002ECC
:1001C0000020004600690065006E00650000001018
:1001D000034D00610045007600410072004D0000B3
:1001E00000080334003100300000000011241FBE5D
:1001F000CFEFDAE0DEBFCDBF12E0A0E0B1E0EEE28B
:10020000F7E102C005900D92A031B107D9F712E0D5
:10021000A0E1B2E001C01D92A03BB107E1F70E944E
:1002200004030C94950B0C940000259A269A279AA7
:10023000E1E8F0E080818B7F808380818260808331
:1002400080818E7F808380818061808380818860CF
:100250008083E0E8F0E080818260808380818E7F0F
:10026000808380818068808380818F7B8083808190
:100270008062808380818F7E80838081886080839C
:1002800080818B7F808380E29EE4909387008093BF
:10029000860088EE93E09093890080938800909385
:1002A0008B0080938A0090938D0080938C0008953A
:1002B0003E9AE1E9F0E080818B7F808380818260DB
:1002C000808380818E7F8083808180618083808134
:1002D00088608083E0E9F0E08081826080838081B3
:1002E0008E7F808380818068808380818F7B808304
:1002F00080E29EE4909397008093960088EE93E0CE
:100300009093990080939800089585B5877F85BD67
:1003100084B5826084BD84B58E7F84BD85B58B7FB6
:1003200085BD85B58D7F85BD85B5816085BD84B56D
:100330008F7D84BD84B5806184BD16BC8AEF87BD86
:10034000EEE6F0E0808182608083089550985198B5
:1003500052985398E9E6F0E080818068808380813C
:1003600080648083808180628083808180618083DB
:1003700080818860808380818460808380818260C6
:100380008083808181608083E89AE99AEA9AEB9A77
:100390000895EF92FF920F931F93CF93DF93EC0199
:1003A0008EA1882309F448C086B5EE8CFF8C08A185
:1003B00019A1E80EF11C011D111D8A8D9B8DAC8DBC
:1003C000BD8D8E159F05A007B10748F4A8019701C0
:1003D000281B390B4A0B5B0BDA01C90108C0809559
:1003E0009095A095B0958E0D9F1DA01FB11F8AA35B
:1003F0009BA3ACA3BDA36AA17BA18CA19DA10E94DC
:1004000035099B01AC0160E074E284EF9AE40E943C
:1004100089086E8B7F8B888F998F20E030E040EECB
:1004200050E40E9489086A8B7B8B8C8B9D8BEA8EB3
:10043000FB8E0C8F1D8F1EA2DF91CF911F910F910C
:10044000FF90EF9008952098219822982398E8E64D
:10045000F0E0808181608083EBE6F0E08081816064
:1004600080838081826080838081846080838081BA
:100470008860808380818F7E808380818F7D808370
:1004800080818F7B808380818F77808310928A0226
:1004900081E080933C0282E08093150283E08093A8
:1004A000630210929A021092990210924C021092DA
:1004B0004B021092250210922402109273021092A5
:1004C0007202109298021092970210924A021092B1
:1004D000490210922302109222021092710210928D
:1004E00070021092890210923B0210921402109234
:1004F000620210928F02109290021092910210925A
:100500009202109241021092420210924302109203
:10051000440210921A0210921B0210921C021092B6
:100520001D02109268021092690210926A021092E3
:100530006B020895FC0183B1418121E030E0042E7B
:1005400002C0220F331F0A94E2F790E028233923D8
:1005500002C0359527954A95E2F7622F9081921750
:10056000E1F18BB180588BB9992371F4213061F49A
:10057000168217821086118686B590E0A0E0B0E062
:1005800082839383A483B5838081813029F5662398
:1005900019F586B590E0A0E0B0E022813381448176
:1005A0005581821B930BA40BB50B268137814085A7
:1005B0005185820F931FA41FB51F82879387A4873D
:1005C000B58723E0B695A795979587952A95D1F796
:1005D000918B808B9787868760830895E1E6F0E0B2
:1005E00080E8808310826E9A6A9A72980E948501D0
:1005F0000E9415010E9458010E94A6010E94230238
:100600007894579A5F9808950E94EE0282E692E0ED
:100610000E94C90180914B0290914C0290938900F5
:1006200080938800F3CF1F920F920FB60F92112480
:100630008F93F89481E08093AF0278948F910F901C
:100640000FBE0F901F9018951F920F920FB60F922A
:1006500011248F93F89481E08093610278948F91B4
:100660000F900FBE0F901F9018951F920F920FB60C
:100670000F9211248F93F89481E080933A0278943A
:100680008F910F900FBE0F901F9018951F920F9291
:100690000FB60F9211248F93F89481E08093880213
:1006A00078948F910F900FBE0F901F9018951F9206
:1006B0000F920FB60F9211242F933F934F935F9396
:1006C0006F937F938F939F93AF93BF93EF93FF931A
:1006D000F8948BE392E00E949A027894FF91EF9154
:1006E000BF91AF919F918F917F916F915F914F914A
:1006F0003F912F910F900FBE0F901F9018951F9252
:100700000F920FB60F9211242F938F939F93AF9355
:10071000BF93EF93FF93F89427B58091A702909130
:10072000A802A091A902B091AA02820F911DA11D59
:10073000B11D8093A7029093A802A093A902B09341
:10074000AA0227B5EFE8F2E080819181A281B3810E
:10075000820F911DA11DB11D80839183A283B3835C
:1007600027B58091590290915A02A0915B02B091F5
:100770005C02820F911DA11DB11D809359029093BF
:100780005A02A0935B02B0935C0227B5E1E4F2E069
:1007900080819181A281B381820F911DA11DB11D24
:1007A00080839183A283B38327B580913202909195
:1007B0003302A0913402B0913502820F911DA11D28
:1007C000B11D8093320290933302A0933402B09310
:1007D000350227B5EAE1F2E080819181A281B381FF
:1007E000820F911DA11DB11D80839183A283B383CC
:1007F00027B58091800290918102A0918202B091F0
:100800008302820F911DA11DB11D809380029093E0
:100810008102A0938202B093830227B5E8E6F2E05A
:1008200080819181A281B381820F911DA11DB11D93
:1008300080839183A283B3837894FF91EF91BF91DA
:10084000AF919F918F912F910F900FBE0F901F909E
:10085000189581E08093D70080EA8093D80082E0E9
:1008600089BD09B400FEFDCF80E98093D8001092C5
:10087000E00010921002109211028CE08093E200CE
:10088000789408958091100208959FB7F89480910C
:100890001002882339F083E08093E9008091E8001A
:1008A00085FD03C09FBF8FEF08952091F1008091D7
:1008B000E80085FD03C08BE68093E8009FBF822F90
:1008C00008959FB7F89480911002882329F083E05F
:1008D0008093E9008091F2009FBF089580911002FB
:1008E000882371F09FB7F89483E08093E9002BE6AA
:1008F00002C02093E8008091E80085FDFACF9FBFF9
:100900000895482F809110028823D9F12FB7F894C9
:1009100084E08093E90080911302882341F0809164
:10092000E80085FD02C02FBF12C010921302909103
:10093000E400975E34E08091E80085FD13C02FBF8E
:100940008091E400891729F481E0809313028FEFEE
:100950000895809110028823A1F02FB7F894309366
:10096000E900E9CF4093F1008091E80085FD03C0E4
:100970008AE38093E80085E0809312022FBF80E035
:1009800008958FEF0895282F80911002882351F049
:100990009FB7F89484E08093E9008091E80085FD9A
:1009A00003C09FBF8FEF08952093F1008091E8006E
:1009B00085FD03C08AE38093E80085E080931202FE
:1009C0009FBF80E00895CF93DF93EC0180911002E8
:1009D000882309F41CC13FB7F89484E08093E900B0
:1009E00080911302882309F407C18091E80085FDF6
:1009F00002C03FBF0CC110921302FEC09091E400F0
:100A0000975E8091E80085FD13C03FBF8091E400B0
:100A1000891721F481E080931302F9C080911002BC
:100A2000882309F4F4C03FB7F8945093E900E9CF64
:100A30008091F2002A2F281B822F90E068177907F7
:100A400008F4262F822F90E08134910508F0C6C06B
:100A50008A5A9F4FFC01EE0FFF1F0590F491E02D85
:100A6000099489918093F10089918093F100899193
:100A70008093F10089918093F10089918093F10036
:100A800089918093F10089918093F10089918093FD
:100A9000F10089918093F10089918093F10089910F
:100AA0008093F10089918093F10089918093F10006
:100AB00089918093F10089918093F10089918093CD
:100AC000F10089918093F10089918093F1008991DF
:100AD0008093F10089918093F10089918093F100D6
:100AE00089918093F10089918093F100899180939D
:100AF000F10089918093F10089918093F1008991AF
:100B00008093F10089918093F10089918093F100A5
:100B100089918093F10089918093F100899180936C
:100B2000F10089918093F10089918093F10089917E
:100B30008093F10089918093F10089918093F10075
:100B400089918093F10089918093F100899180933C
:100B5000F10089918093F10089918093F10089914E
:100B60008093F10089918093F10089918093F10045
:100B700089918093F10089918093F100899180930C
:100B8000F10089918093F10089918093F10089911E
:100B90008093F10089918093F10089918093F10015
:100BA00089918093F10089918093F10089918093DC
:100BB000F10089918093F10089918093F1008991EE
:100BC0008093F10089918093F10089918093F100E5
:100BD00089918093F10089918093F10089918093AC
:100BE000F1008091E80085FD02C0B093E800621B2F
:100BF00071094093120204C054E0A0E4BAE345E056
:100C00006115710509F0FACE3FBF80E001C08FEF9A
:100C1000DF91CF9108959FB7F894809112028823B5
:100C200041F084E08093E9008AE38093E800109229
:100C300012029FBF0895609100017091010180919F
:100C4000020190910301089580910401089580911B
:100C5000050108958091060108958091110208957B
:100C6000382F9FB7F89480911002882339F022E042
:100C70002093E9008091E80085FD03C09FBF8FEFBE
:100C8000089581EA8093F10080E28093F100109250
:100C9000F1001092F1001092F1001092F1002093F7
:100CA000F1001092F1003093F1001092F1008AE30C
:100CB0008093E8009FBF80E008951F920F920FB6C7
:100CC0000F9211248F939F938091E1001092E10085
:100CD000982F83FF11C01092E90081E08093EB0010
:100CE0001092EC0082E18093ED0088E08093F000A8
:100CF000109210021092110292FF13C08091100204
:100D0000882379F080911202882359F081508093D2
:100D10001202882331F484E08093E9008AE380930F
:100D2000E8009F918F910F900FBE0F901F90189524
:100D30001F920F920FB60F9211240F931F932F93B0
:100D40003F934F935F936F937F938F939F93AF9353
:100D5000BF93EF93FF931092E9008091E80083FF27
:100D60003CC14091F1003091F1008091F100682F79
:100D700070E02091F100922F80E0682B792B809118
:100D8000F100A82FB0E02091F100922F80E0A82B75
:100D9000B92B1091F1000091F10082EF8093E800EF
:100DA000363009F05AC025E331E0A90145505040E2
:100DB000F9013797859194918617970701F5FA0104
:100DC000859194918A179B07D1F49A012E5F3F4F2A
:100DD000F901659174912E5F3F4FF9014491212FE4
:100DE00030E0902F80E0282B392B2F3F310519F070
:100DF00010F02FEF30E0241758F4422F09C0295F7C
:100E00003F4F495F5F4FF1E02F353F0789F6E5C05F
:100E10005EEF8091E800282F30E0C9018570907066
:100E2000892BB9F322FDDCC0342F413108F030E1C9
:100E3000232FCB0106C0FC010196E491E093F10061
:100E400021502223C1F7630F711D431B5093E8000B
:100E50004423F9F63031E9F2C3C0353061F48EEF46
:100E60008093E8008091E80080FFFCCF862F8068A7
:100E70008093E300B5C0393051F5442309F0ADC08B
:100E80006093100210921102109212028EEF809362
:100E9000E80088E591E021E02093E900FC0101965B
:100EA000E491E093EB00EE2369F0AC014F5F5F4FFC
:100EB000FC0184918093EC00CA010196FA013491FF
:100EC0003093ED002F5F253039F78EE181C0383047
:100ED00061F4403809F081C08091E80080FFFCCFC8
:100EE000809110028093F10050C0313289F4413A70
:100EF00009F073C08091E80080FFFCCFE0E0F1E0F2
:100F000081918093F10081E0E730F807C9F73DC097
:100F10003032A1F4413209F060C08091E80082FFD4
:100F2000FCCFE0E0F1E08091F100819381E0E730D7
:100F3000F807C9F78BEF8093E80027C0323251F4ED
:100F4000413209F04AC0609311028091E80080FFAD
:100F5000FCCF1BC03323E9F48091E80080FFFCCF75
:100F6000423811F080E00DC0A093E9008091EB00C1
:100F700090E025E0969587952A95E1F7817010928B
:100F8000E9008093F1001092F1008EEF8093E80069
:100F900027C0313011F0333001F54230F1F4672BC6
:100FA000E1F42A2F2F77822F81508430B0F48EEF16
:100FB0008093E8002093E900333079F089E1809351
:100FC000EB0081E090E002C0880F991F2A95E2F7BC
:100FD0008093EA001092EA0003C081E28093EB0064
:100FE000FF91EF91BF91AF919F918F917F916F9101
:100FF0005F914F913F912F911F910F910F900FBED5
:101000000F901F9018951F93CF93DF93EC01FE0173
:1010100021961491112349F01A3019F48DE00E94A1
:101020008104812F0E948104F2CFDF91CF911F9123
:101030000895982F8A3010F087E301C080E3890F6C
:101040000E94810408951F93182F82958F700E942B
:101050001908812F8F700E9419081F9108951F93FE
:10106000182F892F0E942308812F0E9423081F9187
:101070000895CF93DF93EC0160E177E20E944A0B81
:10108000662311F420E005C0862F805D0E94810454
:1010900021E0CE0160E177E20E944A0B68EE73E046
:1010A0000E944A0B662311F4222329F0862F805DCB
:1010B0000E94810421E0CE0168EE73E00E944A0B99
:1010C00064E670E00E944A0B662311F4222329F0A3
:1010D000862F805D0E94810421E0CE0164E670E0ED
:1010E0000E944A0B6AE070E00E944A0B662311F4EA
:1010F000222321F0862F805D0E948104CE016AE0C8
:1011000070E00E944A0B805D0E948104DF91CF91C4
:101110000895A8E1B0E0EFE8F8E00C94660B69836D
:101120007A838B839C832D833E834F835887B9E0DA
:10113000EB2EF12CEC0EFD1ECE010196B7010E94A4
:10114000D20A8E010F5E1F4FCE010596B8010E9494
:10115000D20A2985223008F47EC03989323010F451
:10116000B8017CC08A859A8989278A87243011F042
:10117000223031F4231709F06EC067E071E06EC0D1
:10118000343039F41D861E861F86188A1C861B86FD
:1011900004C0323021F484E08987B7015FC02B8519
:1011A0003C858B899C89281B390B3C872B87ED84D8
:1011B000FE840F851889AD88BE88CF88D88CEA1444
:1011C000FB040C051D0540F4EE0CFF1C001F111F55
:1011D000215030403C872B8720E030E040E050E059
:1011E00080E090E0A0E0B0E460E070E0EA14FB048E
:1011F0000C051D0540F0282B392B4A2B5B2BEA18D8
:10120000FB080C091D09B695A79597958795EE0CD7
:10121000FF1C001F111F6F5F7F4F6F31710531F78A
:10122000DA01C9018F779070A070B0708034910599
:10123000A105B10561F427FD0AC0E114F10401051F
:10124000110529F0205C3F4F4F4F5F4F20782D87CD
:101250003E874F87588BBE01675F7F4FCB010E944F
:10126000FD096896EAE00C94820BA8E0B0E0EBE39D
:10127000F9E00C94660B7B018C0161157105810509
:10128000910519F482E0898360C083E089838EE14F
:10129000C82ED12CDC82CB82ED82FE820F83188790
:1012A000C801B7010E94AE09FC013197F7FF3BC0AE
:1012B000222733272E1B3F0B57016801022E04C043
:1012C000D694C794B794A7940A94D2F740E050E01C
:1012D00060E070E081E090E0A0E0B0E004C0880F42
:1012E000991FAA1FBB1F2A95D2F70197A109B1091F
:1012F0008E219F21A023B1230097A105B10521F0E4
:1013000041E050E060E070E04A295B296C297D29CA
:101310004D835E836F8378878EE190E08E1B9F0BF9
:101320009C838B8312C0309781F00E2E04C0EE0C8C
:10133000FF1C001F111F0A94D2F7ED82FE820F835B
:101340001887CE1ADF0ADC82CB821A82CE01019680
:101350000E94FD092896EAE00C94820BEF92FF921E
:101360000F931F937B018C0180E0E81680E0F80664
:1013700081E0080780E0180788F48FEFE816F10491
:101380000105110531F028F088E090E0A0E0B0E020
:1013900017C080E090E0A0E0B0E012C080E0E81666
:1013A00080E0F80680E0080781E0180728F088E16F
:1013B00090E0A0E0B0E004C080E190E0A0E0B0E008
:1013C00020E230E040E050E0281B390B4A0B5B0B79
:1013D00004C016950795F794E7948A95D2F7F7011C
:1013E000E15FFE4F8081281B310941095109C90184
:1013F0001F910F91FF90EF900895DF92EF92FF926F
:101400000F931F93FC01E480F58006811781D18042
:101410008081823048F480E090E0A0E1B0E0E82AEA
:10142000F92A0A2B1B2BA5C0843009F49FC08230F7
:1014300021F4EE24FF24870105C0E114F104010525
:10144000110519F4E0E0F0E096C0628173819FEF2E
:10145000623879070CF05BC022E83FEF261B370BA0
:101460002A3131052CF020E030E040E050E02AC085
:10147000B801A701022E04C0769567955795479548
:101480000A94D2F781E090E0A0E0B0E004C0880FB9
:10149000991FAA1FBB1F2A95D2F70197A109B1096D
:1014A0008E219F21A023B1230097A105B10521F032
:1014B00081E090E0A0E0B0E09A01AB01282B392B4D
:1014C0004A2B5B2BDA01C9018F779070A070B07046
:1014D00080349105A105B10539F427FF09C0205CCE
:1014E0003F4F4F4F5F4F04C0215C3F4F4F4F5F4F07
:1014F000E0E0F0E02030A0E03A07A0E04A07A0E4F6
:101500005A0710F0E1E0F0E079018A0127C0603865
:10151000710564F5FB01E158FF4FD801C7018F77D2
:101520009070A070B07080349105A105B10539F4B8
:10153000E7FE0DC080E490E0A0E0B0E004C08FE3DF
:1015400090E0A0E0B0E0E80EF91E0A1F1B1F17FF95
:1015500005C016950795F794E794319687E01695A0
:101560000795F794E7948A95D1F705C0EE24FF24F8
:101570008701EFEFF0E06E2F679566276795902F54
:101580009F77D794DD24D7948E2F8695492F462BAD
:10159000582F5D29B701CA011F910F91FF90EF905D
:1015A000DF900895FC01DB01408151812281622F8F
:1015B0006F7770E0221F2227221F9381892F880FC7
:1015C000822B282F30E0991F9927991F11969C9301
:1015D000119721153105A9F54115510561057105D1
:1015E00011F482E037C082E89FEF13969C938E93AC
:1015F00012979A01AB0167E0220F331F441F551F5A
:101600006A95D1F783E08C930DC0220F331F441FDE
:10161000551F12968D919C911397019713969C9349
:101620008E931297203080E0380780E0480780E4EE
:10163000580758F314962D933D934D935C93179749
:1016400008952F3F310579F4411551056105710564
:1016500019F484E08C93089564FF03C081E08C93B7
:1016600012C01C9210C02F57304013963C932E93FB
:10167000129783E08C9387E0440F551F661F771FF6
:101680008A95D1F7706414964D935D936D937C9316
:1016900017970895AA1BBB1B51E107C0AA1FBB1FC8
:1016A000A617B70710F0A61BB70B881F991F5A95EE
:1016B000A9F780959095BC01CD0108952F923F9296
:1016C0004F925F926F927F928F929F92AF92BF9252
:1016D000CF92DF92EF92FF920F931F93CF93DF93FE
:1016E000CDB7DEB7CA1BDB0B0FB6F894DEBF0FBE5B
:1016F000CDBF09942A88398848885F846E847D84A8
:101700008C849B84AA84B984C884DF80EE80FD80A9
:101710000C811B81AA81B981CE0FD11D0FB6F8941F
:0E172000DEBF0FBECDBFED010895F894FFCFE0
:10172E0000E10000000008000000000000000000C2
:10173E000102020303030304040404040404040565
:10174E00050505050505050505050505050505063A
:10175E00060606060606060606060606060606061B
:10176E00060606060606060606060606060606070A
:10177E0007070707070707070707070707070707EB
:10178E0007070707070707070707070707070707DB
:10179E0007070707070707070707070707070707CB
:1017AE0007070707070707070707070707070708BA
:1017BE00080808080808080808080808080808089B
:1017CE00080808080808080808080808080808088B
:1017DE00080808080808080808080808080808087B
:1017EE00080808080808080808080808080808086B
:1017FE00080808080808080808080808080808085B
:10180E00080808080808080808080808080808084A
:10181E00080808080808080808080808080808083A
:10182E000808080808080808080808080808080032
:00000001FF
