:100000000C9477010C94F7040C9408050C9494015B
:100010000C9494010C9494010C9494010C94190583
:100020000C9494010C942A050C9405080C94400837
:100030000C9494010C9494010C9494010C949401EC
:100040000C9494010C9494010C9494010C949401DC
:100050000C9494010C9446050C9494010C94940116
:100060000C9494010C9494010C9494010C949401BC
:100070000C9494010C9494010C9494010C949401AC
:100080000C9494010C9494010C9494010C9494019C
:100090000C9494010C9494010C9494010C9494018C
:1000A0000C9494010C9494010C9494019907960774
:1000B000930790078D078A078707840781077E07C4
:1000C0007B077807750772076F076C076907660774
:1000D000630760075D075A075707540751074E0724
:1000E0004B074807450742073F073C0739073607D4
:1000F000330730072D072A072707240721071E0784
:100100001B071807150712070F070C070907060733
:1001100003070007FD06FA06F706F406F106EE06E9
:10012000EB06E806E506E206DF06DC06D9066E61A8
:100130006E00696E6600000100006A011200020094
:10014000007C014300030000BF010401030904C354
:10015000011202030904D7011003030904E901088D
:100160000001C11201803601813612010002020035
:100170000010C0167A0400010102030109024300C5
:10018000020100C03209040000010202010005243E
:1001900000100105240101010424020605240600C3
:1001A000010705820310004009040100020A000053
:1001B0000007050302400000070584024000000418
:1001C00003090412034A002E00200046006900655E
:1001D000006E006500000010034D006100450076D0
:1001E00000410072004D000000080334003100306F
:1001F00000000000407A10F35A00A0724E18090067
:1002000010A5D4E80000E87648170000E40B54027B
:100210000000CA9A3B000000E1F5050000809698B6
:1002200000000040420F000000A086010000001006
:100230002700000000E80300000000640000000048
:10024000000A00000000000100000000002C76D829
:1002500088DC674F0823DFC1DFAE59E1B1B796E50F
:10026000E3E453C63AE651997696E8E6C28426EB73
:10027000898C9B62ED407C6FFCEFBC9C9F40F2BA86
:10028000A56FA5F490055A2AF75C936B6CF9676D1E
:10029000C11BFCE0E40D47FEF520E6B500D0ED9073
:1002A0002E0300943577050080841E080000204E40
:1002B0000A000000C80C333333330F986E128311D9
:1002C00041EF8D2114893BE65516CFFEE6DB18D1B0
:1002D000844B381BF77C1D901DA4BBE42420328482
:1002E000725E228100C9F124ECA1E53D27001124B2
:1002F0001FBECFEFDAE0DEBFCDBF12E0A0E0B1E07D
:10030000E4EDFDE202C005900D92A031B107D9F7EE
:1003100012E0A0E1B2E001C01D92A53EB107E1F7F5
:100320000E947A050C94E8160C94000085B5877F2E
:1003300085BD84B5826084BD84B58E7F84BD85B55E
:100340008B7F85BD85B58D7F85BD85B5816085BD7C
:1003500084B58F7D84BD84B5806184BD16BC8AEF71
:1003600087BDEEE6F0E08081826080830895259A63
:10037000269A279AE1E8F0E080818B7F8083808154
:100380008260808380818E7F808380818061808392
:10039000808188608083E0E8F0E0808182608083F3
:1003A00080818E7F808380818068808380818F7B45
:1003B000808380818062808380818F7E8083808142
:1003C0008860808380818B7F808380E29EE490932D
:1003D00087008093860088EE93E090938900809355
:1003E000880090938B0080938A0090938D00809377
:1003F0008C0008953E9AE1E9F0E080818B7F808354
:1004000080818260808380818E7F80838081806113
:100410008083808188608083E0E9F0E08081826071
:10042000808380818E7F80838081806880838081CB
:100430008F7B808380E29EE4909397008093960068
:1004400088EE93E0909399008093980008955298D5
:10045000539A1092CD0083E08093CC0082E0809389
:10046000C80088E18093C90086E08093CA0008959F
:10047000DC018091C80087FF32C08091CE008336B6
:1004800071F5F894EAE2F2E040E08091C80087FF5D
:10049000FCCF9091CE008091C80087FFFCCF809167
:1004A000CE00282F290F420F392F20E090E0822B19
:1004B000932B91838083F29682E0E23FF80729F73D
:1004C0008091C80087FFFCCF8091CE00841721F473
:1004D00081E012968C9302C012961C927894089533
:1004E000509851986E982098E9E6F0E080818860F5
:1004F000808380818460808380818260808380812A
:1005000081608083EAE6F0E0808180628083808180
:1005100080618083E89AE99AEE9AE8E6F0E08081CB
:1005200081608083EBE6F0E08081816080830895C4
:10053000EF92FF920F931F93EEE2F2E080E090E0E3
:10054000A0E0B0E00F2EF3ECEF2EF5EFFF2EF8E277
:100550000F2FFFE31F2FF02D20E030E040E050E4AC
:10056000108E118E128E138E80839183A283B3839B
:1005700084839583A683B78380879187A287B38777
:10058000E486F58606871787208B318B428B538B49
:10059000848B958BA68BB78B148E158E168E178E2B
:1005A000F29662E0E63FF607D9F61F910F91FF90B1
:1005B000EF900895EF92FF920F931F93CF93DF93E5
:1005C000EC018889813009F04CC01D861C8686B5F7
:1005D000EE80FF80E80EF11C26B56C817D81C7019D
:1005E000A0E0B0E0820F911DA11DB11D9B0140E074
:1005F00050E0281739074A075B0730F4C701861B0C
:10060000970B9987888706C0609570956E0D7F1D42
:10061000798768870A851B858885998564E670E0F7
:100620000E940315FB01C80164E670E00E940315F7
:100630000E0F1F1F061B170B198708871B870A87BA
:1006400020E030E069E47EEE87E693E0A9019801BE
:100650000E94171539832883FD82EC82188A81E075
:10066000898B8C859D8581549C4910F01982188254
:10067000DF91CF911F910F91FF90EF900895FC01B2
:100680009A01481759072CF09B016E177F070CF44D
:100690009F01C90108956F927F928F929F92AF92AE
:1006A000BF92CF92DF92EF92FF920F931F93D62EBD
:1006B000C72EB82EA92E922E832E742E652E97014A
:1006C000A8010E94AD0D1816ACF06D2D7C2D8B2D60
:1006D0009A2D292D382D472D562D0E940D0E87FD60
:1006E00005C0ED2CFC2C0B2D1A2D04C0E92CF82C88
:1006F000072D162DB701C8011F910F91FF90EF90A4
:10070000DF90CF90BF90AF909F908F907F906F9031
:100710000895CF93DF938091E402882309F441C0C8
:1007200087B596B5282F30E0290F311DE2E2F2E0BF
:10073000EF01A896A90160E070E080819181820FAD
:10074000931F9183808386819781820F931F978364
:10075000868388819981AA81BB81840F951FA61FFA
:10076000B71F88839983AA83BB83F296E29682E0BF
:10077000EA3EF80711F78091150290911602A091B8
:100780001702B0911802840F951FA61FB71F809300
:10079000150290931602A0931702B09318021092BC
:1007A000E402DF91CF9108954F925F926F927F9212
:1007B0008F929F92AF92BF92CF92DF92EF92FF9271
:1007C0000F931F93CF93DF932C01FC018281882329
:1007D00009F4D9C0C0911C02D0911D02FDE0CD3AB0
:1007E000DF0708F48AC060902A0270902B0225E18E
:1007F000621625E0720608F480C060914A0270918A
:100800004B0280914C0290914D020E94EF0E20E02D
:1008100034E244EF5AE40E94010D5B016C01109236
:100820004A0210924B0210924C0210924D02882400
:100830009924CE01A0E0B0E0A4019301281B390B5C
:100840004A0B5B0BCA01B901209346023093470261
:1008500040934802509349020E943D0E7B018C0157
:1008600060932E0270932F02809330029093310296
:10087000A60195010E94070C2091320230913302AB
:1008800040913402509135020E94DA0B5B016C01F9
:100890006093320270933302809334029093350256
:1008A000C801B70120913A0230913B0240913C02CD
:1008B00050913D020E94070C7B018C01C601B501DD
:1008C00020913E0230913F024091400250914102FE
:1008D0000E94070C9B01AC01C801B7010E94DA0B12
:1008E0007B018C01C401B3010E94EF0E9B01AC019E
:1008F000C801B7010E94DA0B14C060912A027091FE
:100900002B0280E090E00E94EF0E10924A021092BB
:100910004B0210924C0210924D0210921D02109246
:100920001C020E94310A25E330E040E050E00E94C2
:10093000E41428EE33E040E050E00E9417152851FF
:100940003C4F47E0213D34071CF020ED37E006C066
:1009500053E0283E350714F428EE33E080912A0254
:1009600090912B02892B11F428EE33E030931F0273
:1009700020931E0230938900209388008BB1805809
:100980008BB910922D02F20182818823F9F08091B7
:100990005C0290915D0290938B0080938A0010928C
:1009A0005F0280918E0290918F0290938D008093D0
:1009B0008C00109291028091C0029091C10290939C
:1009C0009900809398001092C3021282DF91CF9118
:1009D0001F910F91FF90EF90DF90CF90BF90AF905D
:1009E0009F908F907F906F905F904F9008951F928F
:1009F0000F920FB60F9211248F93F89481E0809399
:100A00002C0278948F910F900FBE0F901F90189525
:100A10001F920F920FB60F9211248F93F89481E0DA
:100A200080935E0278948F910F900FBE0F901F906D
:100A300018951F920F920FB60F9211248F93F8946E
:100A400081E08093900278948F910F900FBE0F9069
:100A50001F9018951F920F920FB60F9211248F932B
:100A6000F894809114028F5F809314028091140295
:100A7000823029F481E08093C202109214027894AB
:100A80008F910F900FBE0F901F9018951F920F928D
:100A90000FB60F9211248F93F89481E08093E402B3
:100AA00078948F910F900FBE0F901F90189580E84B
:100AB00080936100109261006A9A72980E94960178
:100AC0000E94B7010E94FA010E9470020E949802DF
:100AD00089E192E00E9427021092E402109214022F
:100AE0007894579A5F980E94D1050E94EA0588235E
:100AF000E1F308950E9457050E94890389E192E07D
:100B00000E9438028CE192E00E94DA028EE492E0C8
:100B10000E94DA0280E892E00E94DA0282EB92E020
:100B20000E94DA0289E192E00E94D40380911502CA
:100B300090911602A0911702B0911802815095432E
:100B4000AC40B040C8F210921502109216021092FA
:100B500017021092180260912E0270912F0280915C
:100B60003002909131020E94310ADC01CB010E94D7
:100B7000E10980E20E9429066091320270913302FD
:100B800080913402909135020E94310ADC01CB0140
:100B90000E94E1098AE00E9429068DE00E94290650
:100BA000ABCF81E08093D70080EA8093D80082E0C9
:100BB00089BD09B400FEFDCF80E98093D800109272
:100BC000E00010921002109211028CE08093E2007B
:100BD000789408958091100208959FB7F8948091B9
:100BE0001002882339F083E08093E9008091E800C7
:100BF00085FD03C09FBF8FEF08952091F100809184
:100C0000E80085FD03C08BE68093E8009FBF822F3C
:100C100008959FB7F89480911002882329F083E00B
:100C20008093E9008091F2009FBF089580911002A7
:100C3000882371F09FB7F89483E08093E9002BE656
:100C400002C02093E8008091E80085FDFACF9FBFA5
:100C50000895482F809110028823D9F12FB7F89476
:100C600084E08093E90080911302882341F0809111
:100C7000E80085FD02C02FBF12C0109213029091B0
:100C8000E400975E34E08091E80085FD13C02FBF3B
:100C90008091E400891729F481E0809313028FEF9B
:100CA0000895809110028823A1F02FB7F894309313
:100CB000E900E9CF4093F1008091E80085FD03C091
:100CC0008AE38093E80085E0809312022FBF80E0E2
:100CD00008958FEF0895282F80911002882351F0F6
:100CE0009FB7F89484E08093E9008091E80085FD47
:100CF00003C09FBF8FEF08952093F1008091E8001B
:100D000085FD03C08AE38093E80085E080931202AA
:100D10009FBF80E00895CF93DF93EC018091100294
:100D2000882309F41CC13FB7F89484E08093E9005C
:100D300080911302882309F407C18091E80085FDA2
:100D400002C03FBF0CC110921302FEC09091E4009C
:100D5000975E8091E80085FD13C03FBF8091E4005D
:100D6000891721F481E080931302F9C08091100269
:100D7000882309F4F4C03FB7F8945093E900E9CF11
:100D80008091F2002A2F281B822F90E068177907A4
:100D900008F4262F822F90E08134910508F0C6C018
:100DA0008A5A9F4FFC01EE0FFF1F0590F491E02D32
:100DB000099489918093F10089918093F100899140
:100DC0008093F10089918093F10089918093F100E3
:100DD00089918093F10089918093F10089918093AA
:100DE000F10089918093F10089918093F1008991BC
:100DF0008093F10089918093F10089918093F100B3
:100E000089918093F10089918093F1008991809379
:100E1000F10089918093F10089918093F10089918B
:100E20008093F10089918093F10089918093F10082
:100E300089918093F10089918093F1008991809349
:100E4000F10089918093F10089918093F10089915B
:100E50008093F10089918093F10089918093F10052
:100E600089918093F10089918093F1008991809319
:100E7000F10089918093F10089918093F10089912B
:100E80008093F10089918093F10089918093F10022
:100E900089918093F10089918093F10089918093E9
:100EA000F10089918093F10089918093F1008991FB
:100EB0008093F10089918093F10089918093F100F2
:100EC00089918093F10089918093F10089918093B9
:100ED000F10089918093F10089918093F1008991CB
:100EE0008093F10089918093F10089918093F100C2
:100EF00089918093F10089918093F1008991809389
:100F0000F10089918093F10089918093F10089919A
:100F10008093F10089918093F10089918093F10091
:100F200089918093F10089918093F1008991809358
:100F3000F1008091E80085FD02C0B093E800621BDB
:100F400071094093120204C054E0A0E4BAE345E002
:100F50006115710509F0FACE3FBF80E001C08FEF47
:100F6000DF91CF9108959FB7F89480911202882362
:100F700041F084E08093E9008AE38093E8001092D6
:100F800012029FBF0895609100017091010180914C
:100F900002019091030108958091040108958091C8
:100FA0000501089580910601089580911102089528
:100FB000382F9FB7F89480911002882339F022E0EF
:100FC0002093E9008091E80085FD03C09FBF8FEF6B
:100FD000089581EA8093F10080E28093F1001092FD
:100FE000F1001092F1001092F1001092F1002093A4
:100FF000F1001092F1003093F1001092F1008AE3B9
:101000008093E8009FBF80E008951F920F920FB673
:101010000F9211248F939F938091E1001092E10031
:10102000982F83FF11C01092E90081E08093EB00BC
:101030001092EC0082E18093ED0088E08093F00054
:10104000109210021092110292FF13C080911002B0
:10105000882379F080911202882359F0815080937F
:101060001202882331F484E08093E9008AE38093BC
:10107000E8009F918F910F900FBE0F901F901895D1
:101080001F920F920FB60F9211240F931F932F935D
:101090003F934F935F936F937F938F939F93AF9300
:1010A000BF93EF93FF931092E9008091E80083FFD4
:1010B0003CC14091F1003091F1008091F100682F26
:1010C00070E02091F100922F80E0682B792B8091C5
:1010D000F100A82FB0E02091F100922F80E0A82B22
:1010E000B92B1091F1000091F10082EF8093E8009C
:1010F000363009F05AC02DE331E0A9014550504087
:10110000F9013797859194918617970701F5FA01B0
:10111000859194918A179B07D1F49A012E5F3F4FD6
:10112000F901659174912E5F3F4FF9014491212F90
:1011300030E0902F80E0282B392B2F3F310519F01C
:1011400010F02FEF30E0241758F4422F09C0295F28
:101150003F4F495F5F4FF1E027363F0789F6E5C013
:101160005EEF8091E800282F30E0C9018570907013
:10117000892BB9F322FDDCC0342F413108F030E176
:10118000232FCB0106C0FC010196E491E093F1000E
:1011900021502223C1F7630F711D431B5093E800B8
:1011A0004423F9F63031E9F2C3C0353061F48EEFF3
:1011B0008093E8008091E80080FFFCCF862F806854
:1011C0008093E300B5C0393051F5442309F0ADC038
:1011D0006093100210921102109212028EEF80930F
:1011E000E80080E691E021E02093E900FC0101960F
:1011F000E491E093EB00EE2369F0AC014F5F5F4FA9
:10120000FC0184918093EC00CA010196FA013491AB
:101210003093ED002F5F253039F78EE181C03830F3
:1012200061F4403809F081C08091E80080FFFCCF74
:10123000809110028093F10050C0313289F4413A1C
:1012400009F073C08091E80080FFFCCFE0E0F1E09E
:1012500081918093F10081E0E730F807C9F73DC044
:101260003032A1F4413209F060C08091E80082FF81
:10127000FCCFE0E0F1E08091F100819381E0E73084
:10128000F807C9F78BEF8093E80027C0323251F49A
:10129000413209F04AC0609311028091E80080FF5A
:1012A000FCCF1BC03323E9F48091E80080FFFCCF22
:1012B000423811F080E00DC0A093E9008091EB006E
:1012C00090E025E0969587952A95E1F78170109238
:1012D000E9008093F1001092F1008EEF8093E80016
:1012E00027C0313011F0333001F54230F1F4672B73
:1012F000E1F42A2F2F77822F81508430B0F48EEFC3
:101300008093E8002093E900333079F089E18093FD
:10131000EB0081E090E002C0880F991F2A95E2F768
:101320008093EA001092EA0003C081E28093EB0010
:10133000FF91EF91BF91AF919F918F917F916F91AD
:101340005F914F913F912F911F910F910F900FBE81
:101350000F901F9018951F93CF93DF93EC01FE0120
:1013600021961491112349F01A3019F48DE00E944E
:101370002906812F0E942906F2CFDF91CF911F917C
:101380000895982F8A3010F087E301C080E3890F19
:101390000E94290608951F93182F82958F700E942E
:1013A000C109812F8F700E94C1091F9108951F9359
:1013B000182F892F0E94CB09812F0E94CB091F91E2
:1013C0000895CF93DF93EC0160E177E20E9403156B
:1013D000662311F420E005C0862F805D0E94290657
:1013E00021E0CE0160E177E20E94031568EE73E030
:1013F0000E940315662311F4222329F0862F805DB5
:101400000E94290621E0CE0168EE73E00E940315D8
:1014100064E670E00E940315662311F4222329F08C
:10142000862F805D0E94290621E0CE0164E670E0EF
:101430000E9403156AE070E00E940315662311F410
:10144000222321F0862F805D0E942906CE016AE0CA
:1014500070E00E940315805D0E942906DF91CF9104
:101460000895EF92FF920F931F937B018C0120E070
:1014700030E040E05FE40E94DD0D88238CF0C8017D
:10148000B70120E030E040E05FE40E94A90B0E9439
:101490009B0E9B01AC01205030404040504806C09C
:1014A000C801B7010E949B0E9B01AC01B901CA01A2
:1014B0001F910F91FF90EF900895A0E0B0E0E3E658
:1014C000FAE00C943915DC012B01FA019C91923061
:1014D00008F439C1EB018881823008F433C19430BB
:1014E00069F4843009F02FC111969C91119789817C
:1014F000981709F428C1A7E0B1E025C1843009F4A8
:1015000021C18230A9F4923009F01DC19A01AD01C8
:1015100088E0EA010990AE01E90109929E0181503B
:10152000C1F7E201898111969C918923818308C1C9
:10153000923009F407C112962D903C901397EB015D
:101540008A819B811496AD90BD90CD90DC901797C9
:10155000EC80FD800E811F819101281B390BB901A0
:1015600037FF04C066277727621B730B6032710553
:101570000CF061C0121613066CF537014801062EF7
:1015800004C096948794779467940A94D2F721E0E4
:1015900030E040E050E004C0220F331F441F551FCD
:1015A0006A95D2F721503040404050402E213F21D3
:1015B00040235123211531054105510521F021E03A
:1015C00030E040E050E079018A01E628F728082958
:1015D00019293CC0232BD1F1260E371E35014601B7
:1015E000062E04C096948794779467940A94D2F751
:1015F00021E030E040E050E004C0220F331F441FE0
:10160000551F6A95D2F721503040404050402A2162
:101610003B214C215D21211531054105510521F06A
:1016200021E030E040E050E059016A01A628B728E7
:10163000C828D9280BC0821593052CF01C01AA24B8
:10164000BB24650103C0EE24FF24870111969C9101
:10165000D20111968C91981709F445C0992339F05D
:10166000A80197012A193B094C095D0906C0A6018A
:1016700095012E193F09400B510B57FD08C01182EF
:101680003382228224833583468357831DC081E0C1
:1016900081833382228288279927DC01821B930B66
:1016A000A40BB50B84839583A683B7830DC0220F4B
:1016B000331F441F551F24833583468357838281FC
:1016C0009381019793838283248135814681578159
:1016D000DA01C9010197A109B1098F5F9F4FAF4F8F
:1016E000BF4328F30BC0918333822282EA0CFB1C98
:1016F0000C1D1D1DE482F5820683178383E0808321
:10170000248135814681578157FF1AC0C901AA2714
:1017100097FDA095BA2F81709070A070B07056950B
:10172000479537952795822B932BA42BB52B848334
:101730009583A683B7838281938101969383828365
:10174000DF0101C0D201CD01CDB7DEB7E2E10C94DB
:101750005515A0E2B0E0EFEAFBE00C944515698373
:101760007A838B839C832D833E834F835887E9E064
:10177000EE2EF12CEC0EFD1ECE010196B7010E945B
:101780008C108E010F5E1F4FCE010596B8010E948E
:101790008C108A8991E089278A8BC701B801AE0134
:1017A000475E5F4F0E945D0A0E94B70FA096E6E079
:1017B0000C946115A0E2B0E0E0EEFBE00C9445155E
:1017C00069837A838B839C832D833E834F835887E1
:1017D000F9E0EF2EF12CEC0EFD1ECE010196B701C3
:1017E0000E948C108E010F5E1F4FCE010596B8012E
:1017F0000E948C10C701B801AE01475E5F4F0E9486
:101800005D0A0E94B70FA096E6E00C946115A0E275
:10181000B0E0EDE0FCE00C94391569837A838B83AA
:101820009C832D833E834F835887CE010196BE0152
:10183000675F7F4F0E948C10CE010596BE016F5EE0
:101840007F4F0E948C109985923088F08989823070
:10185000C8F0943019F4823051F404C0843029F473
:10186000923081F487E091E0C6C0923049F420E0E4
:101870009A858A89981321E02A87CE010996BBC0F0
:10188000823049F420E09A858A89981321E02A8BD6
:10189000CE014196B0C02D843E844F8458886D8817
:1018A0007E888F88988CEE24FF248701AA24BB248D
:1018B000650140E050E060E070E0E0E0F0E0C10190
:1018C00081709070892BE9F0E60CF71C081D191D3A
:1018D0009A01AB012A0D3B1D4C1D5D1D80E090E07F
:1018E000A0E0B0E0E614F7040805190520F481E053
:1018F00090E0A0E0B0E0BA01A901480F591F6A1FAB
:101900007B1FAA0CBB1CCC1CDD1C97FE08C081E011
:1019100090E0A0E0B0E0A82AB92ACA2ADB2A3196D2
:10192000E032F10549F0660C771C881C991C56942E
:10193000479437942794C3CFFA85EA892B893C8949
:101940008B859C85280F391F2E5F3F4F17C0CA011A
:1019500081709070892B61F016950795F794E79444
:1019600080E090E0A0E0B0E8E82AF92A0A2B1B2BDF
:1019700076956795579547952F5F3F4F77FDE7CF52
:101980000CC0440F551F661F771F17FD4160EE0CFA
:10199000FF1C001F111F21503040403090E05907BC
:1019A00090E0690790E4790760F32B8F3C8FDB01AF
:1019B000CA018F779070A070B07080349105A10536
:1019C000B10561F447FD0AC0E114F10401051105F8
:1019D00029F0405C5F4F6F4F7F4F40781A8EFE17A3
:1019E00011F081E08A8F4D8F5E8F6F8F78A383E037
:1019F000898FCE0149960E94B70FA096E2E10C9420
:101A00005515A8E1B0E0E7E0FDE00C9441156983CD
:101A10007A838B839C832D833E834F835887B9E0E1
:101A2000EB2EF12CEC0EFD1ECE010196B7010E94AB
:101A30008C108E010F5E1F4FCE010596B8010E94DB
:101A40008C102985223008F47EC03989323010F498
:101A5000B8017CC08A859A8989278A87243011F049
:101A6000223031F4231709F06EC067E071E06EC0D8
:101A7000343039F41D861E861F86188A1C861B8604
:101A800004C0323021F484E08987B7015FC02B8520
:101A90003C858B899C89281B390B3C872B87ED84DF
:101AA000FE840F851889AD88BE88CF88D88CEA144B
:101AB000FB040C051D0540F4EE0CFF1C001F111F5C
:101AC000215030403C872B8720E030E040E050E060
:101AD00080E090E0A0E0B0E460E070E0EA14FB0495
:101AE0000C051D0540F0282B392B4A2B5B2BEA18DF
:101AF000FB080C091D09B695A79597958795EE0CDF
:101B0000FF1C001F111F6F5F7F4F6F31710531F791
:101B1000DA01C9018F779070A070B07080349105A0
:101B2000A105B10561F427FD0AC0E114F104010526
:101B3000110529F0205C3F4F4F4F5F4F20782D87D4
:101B40003E874F87588BBE01675F7F4FCB010E9456
:101B5000B70F6896EAE00C945D15A8E1B0E0E3EBFE
:101B6000FDE00C94451569837A838B839C832D83D8
:101B70003E834F83588789E0E82EF12CEC0EFD1E42
:101B8000CE010196B7010E948C108E010F5E1F4F8F
:101B9000CE010596B8010E948C108985823040F0F4
:101BA0008989823028F0C701B8010E94041101C060
:101BB0008FEF6896E6E00C946115A8E1B0E0E3EEE3
:101BC000FDE00C94451569837A838B839C832D8378
:101BD0003E834F83588789E0E82EF12CEC0EFD1EE2
:101BE000CE010196B7010E948C108E010F5E1F4F2F
:101BF000CE010596B8010E948C108985823040F094
:101C00008989823028F0C701B8010E94041101C0FF
:101C10008FEF6896E6E00C946115A8E1B0E0E3E18F
:101C2000FEE00C94451569837A838B839C832D8316
:101C30003E834F83588789E0E82EF12CEC0EFD1E81
:101C4000CE010196B7010E948C108E010F5E1F4FCE
:101C5000CE010596B8010E948C108985823040F033
:101C60008989823028F0C701B8010E94041101C09F
:101C700081E06896E6E00C946115A8E0B0E0E3E44A
:101C8000FEE00C9442159B01AC0183E08983DA01EC
:101C9000C9018827B7FD83959927AA27BB27B82EA6
:101CA000211531054105510519F482E089833AC0B7
:101CB0008823A9F0203080E0380780E0480780E8DA
:101CC000580729F460E070E080E09FEC30C0EE241B
:101CD000FF248701E21AF30A040B150B02C07901F5
:101CE0008A018EE1C82ED12CDC82CB82ED82FE826D
:101CF0000F831887C801B7010E94680F0197181653
:101D0000190684F4082E04C0EE0CFF1C001F111FDE
:101D10000A94D2F7ED82FE820F831887C81AD90A77
:101D2000DC82CB82BA82CE0101960E94B70F289640
:101D3000E9E00C945E15ACE0B0E0E1EAFEE00C9462
:101D4000491569837A838B839C83CE010196BE01FA
:101D50006B5F7F4F0E948C108D81823061F18230E9
:101D600050F1843021F48E81882351F12EC02F81CF
:101D7000388537FD20C06E812F3131051CF0662378
:101D8000F9F023C08EE190E0821B930B29853A8500
:101D90004B855C8504C056954795379527958A9560
:101DA000D2F76623B1F050954095309521953F4F7D
:101DB0004F4F5F4F0EC020E030E040E050E009C0E0
:101DC0002FEF3FEF4FEF5FE704C020E030E040E04F
:101DD00050E8B901CA012C96E2E00C946515A8E020
:101DE000B0E0E5EFFEE00C9441157B018C0161153C
:101DF00071058105910519F482E0898360C083E053
:101E000089838EE1C82ED12CDC82CB82ED82FE82CA
:101E10000F831887C801B7010E94680FFC01319732
:101E2000F7FF3BC0222733272E1B3F0B57016801CA
:101E3000022E04C0D694C794B794A7940A94D2F7FC
:101E400040E050E060E070E081E090E0A0E0B0E0D1
:101E500004C0880F991FAA1FBB1F2A95D2F70197AC
:101E6000A109B1098E219F21A023B1230097A105CB
:101E7000B10521F041E050E060E070E04A295B29C3
:101E80006C297D294D835E836F8378878EE190E096
:101E90008E1B9F0B9C838B8312C0309781F00E2E7C
:101EA00004C0EE0CFF1C001F111F0A94D2F7ED8234
:101EB000FE820F831887CE1ADF0ADC82CB821A8259
:101EC000CE0101960E94B70F2896EAE00C945D15AA
:101ED000EF92FF920F931F937B018C0180E0E81635
:101EE00080E0F80681E0080780E0180788F48FEFAB
:101EF000E816F1040105110531F028F088E090E0C2
:101F0000A0E0B0E017C080E090E0A0E0B0E012C038
:101F100080E0E81680E0F80680E0080781E0180716
:101F200028F088E190E0A0E0B0E004C080E190E01B
:101F3000A0E0B0E020E230E040E050E0281B390BA8
:101F40004A0B5B0B04C016950795F794E7948A95A6
:101F5000D2F7F701E15FFE4F8081281B310941096B
:101F60005109C9011F910F91FF90EF900895DF92E1
:101F7000EF92FF920F931F93FC01E480F58006819E
:101F80001781D1808081823048F480E090E0A0E128
:101F9000B0E0E82AF92A0A2B1B2BA5C0843009F4EB
:101FA0009FC0823021F4EE24FF24870105C0E11494
:101FB000F1040105110519F4E0E0F0E096C062813A
:101FC00073819FEF623879070CF05BC022E83FEF26
:101FD000261B370B2A3131052CF020E030E040E0A1
:101FE00050E02AC0B801A701022E04C0769567957B
:101FF000579547950A94D2F781E090E0A0E0B0E0D1
:1020000004C0880F991FAA1FBB1F2A95D2F70197FA
:10201000A109B1098E219F21A023B1230097A10519
:10202000B10521F081E090E0A0E0B0E09A01AB01C1
:10203000282B392B4A2B5B2BDA01C9018F77907043
:10204000A070B07080349105A105B10539F427FF67
:1020500009C0205C3F4F4F4F5F4F04C0215C3F4F92
:102060004F4F5F4FE0E0F0E02030A0E03A07A0E003
:102070004A07A0E45A0710F0E1E0F0E079018A0194
:1020800027C06038710564F5FB01E158FF4FD801A6
:10209000C7018F779070A070B07080349105A10552
:1020A000B10539F4E7FE0DC080E490E0A0E0B0E0B7
:1020B00004C08FE390E0A0E0B0E0E80EF91E0A1F34
:1020C0001B1F17FF05C016950795F794E7943196E7
:1020D00087E016950795F794E7948A95D1F705C0A0
:1020E000EE24FF248701EFEFF0E06E2F679566275F
:1020F0006795902F9F77D794DD24D7948E2F869560
:10210000492F462B582F5D29B701CA011F910F9106
:10211000FF90EF90DF900895FC01DB014081518139
:102120002281622F6F7770E0221F2227221F938166
:10213000892F880F822B282F30E0991F9927991F0C
:1021400011969C93119721153105A9F5411551055B
:102150006105710511F482E037C082E89FEF1396A4
:102160009C938E9312979A01AB0167E0220F331F65
:10217000441F551F6A95D1F783E08C930DC0220F41
:10218000331F441F551F12968D919C9113970197F1
:1021900013969C938E931297203080E0380780E04E
:1021A000480780E4580758F314962D933D934D93B8
:1021B0005C93179708952F3F310579F44115510528
:1021C0006105710519F484E08C93089564FF03C0E0
:1021D00081E08C9312C01C9210C02F573040139690
:1021E0003C932E93129783E08C9387E0440F551F06
:1021F000661F771F8A95D1F7706414964D935D938F
:102200006D937C93179708951F93DC01FB019C91BC
:10221000923008F447C08081823008F443C0943083
:1022200051F411961C91843099F58181682F70E0EA
:10223000611B71093FC0843021F0923031F482304B
:10224000B9F18181882389F12DC011961C911197D4
:102250008230F1F081811817D9F412962D913C91BA
:102260001397828193818217930794F02817390777
:10227000BCF014968D919D910D90BC91A02D248160
:10228000358146815781281739074A075B0718F4BB
:10229000112341F00AC082179307A407B50740F441
:1022A000112319F061E070E005C06FEF7FEF02C00D
:1022B00060E070E0CB011F910895A1E1B0E0E3E69A
:1022C000F1E10C9439153C017F876E876A01FC01AE
:1022D00017821682838181FD03C06FEF7FEF6FC38A
:1022E0009E012F5F3F4F398B288BF3012381EE85B1
:1022F000FF8523FD859123FF8191FF87EE8788234A
:1023000009F45AC3853251F4EE85FF8523FD85918A
:1023100023FF8191FF87EE87853229F490E0B30196
:102320000E945E16E2CF982F10E088249924103284
:10233000B0F49B3269F09C3228F4903251F0933221
:1023400071F40BC09D3239F0903349F4116028C00C
:102350001260146025C0186023C0106121C017FDF1
:102360002AC0892F80538A3078F416FF06C0FAE01D
:102370009F9E902C1124980E13C03AE0839E802CCF
:102380001124880E10620CC09E3221F416FD14C375
:10239000106406C09C3611F4106802C0983659F4D7
:1023A000EE85FF8523FD959123FF9191FF87EE87B1
:1023B000992309F0BCCF892F8554833020F4812FD5
:1023C0008061905E07C0892F8556833008F09FC1D9
:1023D000812F8F7E86FD02C076E0972E6FE3F62E6A
:1023E000F822953619F4F0E4FF2A07C0963619F45E
:1023F00020E8F22A02C091109A94F7FE0AC03BE34B
:10240000391518F45CE3B52E02C0B92CB39427E05B
:1024100009C047E0491520F4BB2447E0942EF7CFCC
:10242000292DBB24C60104969D878C87F601608107
:10243000718182819381AE014F5F5F4F0B2D0E94AE
:1024400070156C010981202E332400FF04C003FDA8
:1024500002C01DE209C0F1FE02C01BE205C0F2FC91
:1024600002C010E001C010E2C1018C709070892B95
:10247000B9F1112311F483E001C084E0881510F054
:1024800088240AC0881AF3FC07C080E290E0B301F8
:102490000E945E168A94C9F7112329F0812F90E0DB
:1024A000B3010E945E1623FE03C00EE211E00EC0CF
:1024B00002E311E00BC0E114F10409F0805290E056
:1024C000B3010E945E160F5F1F4F05C0EF2CFF2463
:1024D000F0E1EF22FF24F8018491882361F714C111
:1024E000F7FE12C0BC0C24FE04C08A81813309F4BB
:1024F000BA941B141CF0BB24B3942DC0F8E0FB1558
:1025000050F538E0B32E27C0F6FC25C0892D90E0A9
:102510008C159D054CF02CEFC2162FEFD20624F03F
:1025200030E8F32A01C09A94992049F0E2E0F0E003
:10253000EC0FFD1FE90DF11D80818033A1F3F7FE43
:102540000AC0B92CB394892D90E0C816D90614F0AE
:10255000992401C09C18F7FC03C025E030E009C0B5
:102560001C141D041CF021E030E003C096012F5F15
:102570003F4F112311F02F5F3F4F992029F0892DF4
:1025800090E00196280F391F882D90E02817390711
:1025900014F0882401C0821A4F2C5524C20189707E
:1025A0009070892B39F008C080E290E0B3010E945E
:1025B0005E168A948820C1F7112329F0812F90E0BC
:1025C000B3010E945E1643FE07C008C080E390E09E
:1025D000B3010E945E168A948820C1F7F7FE46C0B8
:1025E0008601D7FE02C000E010E076010894E11CED
:1025F000F11CE01AF10A41E050E04C0F5D1FE40EBF
:10260000F51E26014B185108892D90E0AA24BB2401
:10261000A81AB90A5FEF0F3F150729F48EE290E080
:10262000B3010E945E16C016D10634F04016510662
:102630001CF4F701808101C080E301501040089430
:10264000E11CF11C0A151B052CF090E0B3010E945F
:102650005E16E0CF0C151D0539F49A81963318F4F7
:10266000953311F424FE81E390E04BC08A818133DD
:1026700009F00F7E90E0B3010E945E169920A1F050
:102680008EE290E0B3010E945E1612E0E1E0F0E01D
:10269000EC0FFD1FE10FF11D1F5F808190E0B30182
:1026A0000E945E169A9491F744FC03C085E690E080
:1026B00002C085E490E0B3010E945E16D7FC05C01D
:1026C000C114D10441F404FF06C0D094C194D108D0
:1026D000D3948DE201C08BE290E0B3010E945E16BC
:1026E00080E305C08F5F26EF3FEFC20ED31E3AE0B6
:1026F000C316D104BCF790E0B3010E945E16C60178
:10270000C096B3010E945E16CC84DD8452C193361C
:1027100031F0933799F0933509F059C023C0F60191
:10272000808189835E010894A11CB11C22E030E005
:10273000C20ED31E21E0E22EF12C12C0F601A080C1
:10274000B18016FD03C06FEF7FEF02C0692D70E00E
:1027500022E030E0C20ED31EC5010E9453167C0158
:102760001F7713C0F601A080B18016FD03C06FEF84
:102770007FEF02C0692D70E022E030E0C20ED31E70
:10278000C5010E9448167C01106813FF07C01BC0DA
:1027900080E290E0B3010E945E168A94882D90E05A
:1027A000E816F906A8F30FC0F50117FD859117FF8C
:1027B00081915F0190E0B3010E945E1681108A94BE
:1027C0000894E108F108E114F10471F7F2C09436BD
:1027D00011F0993689F517FF08C0F6012081318183
:1027E0004281538184E090E00AC0F60180819181AA
:1027F0009C01442737FD4095542F82E090E0C80E9D
:10280000D91E9FE6F92EF12257FF09C05095409539
:10281000309521953F4F4F4F5F4F90E8F92ACA01FD
:10282000B901AE014F5F5F4F2AE030E00E948A1687
:10283000E82EE889EE1A41C0953721F41F7E2AE080
:1028400030E01CC0197F9F3661F0903720F4983536
:1028500009F0B2C00FC0903739F0983709F0ACC01A
:1028600004C028E030E00AC0106114FD146020E1CB
:1028700030E004C014FD166020E132E017FF08C00C
:10288000F601608171818281938144E050E008C04B
:10289000F60180819181BC0180E090E042E050E04F
:1028A000C40ED51EAE014F5F5F4F0E948A16E82E00
:1028B0005889E51A8FE7F82EF122F6FE0BC08EEF4D
:1028C000F822E91438F4F4FE07C0F2FC05C09FEECC
:1028D000F92202C01E2D01C0192DF4FE0DC0FE010B
:1028E000EE0DF11D8081803319F4E9EEFE2208C05F
:1028F0001F5FF2FE05C003C08F2D867809F01F5FB1
:102900000F2DF3FC14C0F0FE0FC0181510F09E2C14
:102910000BC09E2C980C911A182D06C080E290E0F6
:10292000B3010E945E161F5F1815C0F304C018158E
:1029300010F4811A01C0882404FF0FC080E390E0E6
:10294000B3010E945E1602FF1DC001FD03C088E7AF
:1029500090E00EC088E590E00BC0802F867891F063
:1029600001FF02C08BE201C080E2F7FC8DE290E043
:10297000B3010E945E1606C080E390E0B3010E949E
:102980005E169A94E914C0F3EA94E1E0F0E0EC0FEB
:10299000FD1FEE0DF11D808190E0B3010E945E16D7
:1029A000EE2091F706C080E290E0B3010E945E162F
:1029B0008A948820C1F799CCF30166817781CB0195
:1029C0006196E2E10C945515629FD001739FF0016E
:1029D000829FE00DF11D649FE00DF11D929FF00DAF
:1029E000839FF00D749FF00D659FF00D9927729FE6
:1029F000B00DE11DF91F639FB00DE11DF91FBD0171
:102A0000CF0111240895AA1BBB1B51E107C0AA1FC7
:102A1000BB1FA617B70710F0A61BB70B881F991F7F
:102A20005A95A9F780959095BC01CD010895A1E232
:102A30001A2EAA1BBB1BFD010DC0AA1FBB1FEE1F38
:102A4000FF1FA217B307E407F50720F0A21BB30B83
:102A5000E40BF50B661F771F881F991F1A9469F7FF
:102A600060957095809590959B01AC01BD01CF015B
:102A700008952F923F924F925F926F927F928F9222
:102A80009F92AF92BF92CF92DF92EF92FF920F93FD
:102A90001F93CF93DF93CDB7DEB7CA1BDB0B0FB607
:102AA000F894DEBF0FBECDBF09942A8839884888C4
:102AB0005F846E847D848C849B84AA84B984C8845A
:102AC000DF80EE80FD800C811B81AA81B981CE0F51
:102AD000D11D0FB6F894DEBF0FBECDBFED01089536
:102AE000283008F027E03327DA01990F311D87FDE0
:102AF000916000966105710539F432602E5F3D9357
:102B000030E32A95E1F708959F3F30F08038710552
:102B1000610509F03C5F3C5F3D93913008F08068AF
:102B2000911DDF93CF931F930F93FF92EF92192F75
:102B3000987F9695E92F96959695E90FFF27E35B89
:102B4000FD4F99273327EE24FF24A701E7010590C5
:102B50000894079428F4360FE71EF81E491F511DEC
:102B6000660F771F881F991F0694A1F70590079499
:102B700028F4E70EF81E491F561FC11D770F881F46
:102B8000991F661F0694A1F70590079428F4F80E84
:102B9000491F561FC71FD11D880F991F661F771F1A
:102BA0000694A1F70590079420F4490F561FC71FFC
:102BB000D81F990F661F771F881F0694A9F7849165
:102BC0001095177041F0D695C79557954795F7948E
:102BD000E7941A95C1F7E3EFF1E068941590159129
:102BE00035916591959105907FE27395E118F10A11
:102BF000430B560BC90BD009C0F7E10CF11E431F64
:102C0000561FC91FD01D7EF4703311F48A95E6CF8C
:102C1000E894015030F0080F0AF40027021708F476
:102C2000202F2395022F7A3328F079E37D932A957C
:102C3000E9F710C07D932A9589F6069497956795D4
:102C4000379517951794E118F10A430B560BC90BEA
:102C5000D00998F023957E9173957A3308F070E34C
:102C60007C932013B8F77E9170617D9330F083954B
:102C700071E37D9370E32A95E1F71124EF90FF90C3
:102C80000F911F91CF91DF91992787FD909508951E
:102C9000FC010590615070400110D8F78095909527
:102CA0008E0F9F1F0895FC0161507040019001102C
:102CB000D8F7809590958E0F9F1F08950F931F93BF
:102CC000CF93DF938C01EB018B8181FF1BC082FFCF
:102CD0000DC02E813F818C819D812817390764F4B6
:102CE000E881F9810193F983E88306C0E885F985D5
:102CF000802F0995892B31F48E819F8101969F83C6
:102D00008E8302C00FEF1FEFC801DF91CF911F919B
:102D10000F910895FA01AA27283051F1203181F14D
:102D2000E8946F936E7F6E5F7F4F8F4F9F4FAF4FD3
:102D3000B1E03ED0B4E03CD0670F781F891F9A1FE6
:102D4000A11D680F791F8A1F911DA11D6A0F711D9A
:102D5000811D911DA11D20D009F468943F912AE0A6
:102D6000269F11243019305D3193DEF6CF0108958E
:102D7000462F4770405D4193B3E00FD0C9F7F6CFBF
:102D8000462F4F70405D4A3318F0495D31FD405287
:102D9000419302D0A9F7EACFB4E0A695979587951D
:102DA00077956795BA95C9F70097610571050895FC
:102DB0009B01AC010A2E06945795479537952795A8
:102DC000BA95C9F7620F731F841F951FA01D089540
:042DD000F894FFCFA5
:102DD40000E1000000000800000000000000000006
:102DE40001020203030303040404040404040405A9
:102DF400050505050505050505050505050505067E
:102E0400060606060606060606060606060606065E
:102E1400060606060606060606060606060606074D
:102E2400070707070707070707070707070707072E
:102E3400070707070707070707070707070707071E
:102E4400070707070707070707070707070707070E
:102E540007070707070707070707070707070708FD
:102E640008080808080808080808080808080808DE
:102E740008080808080808080808080808080808CE
:102E840008080808080808080808080808080808BE
:102E940008080808080808080808080808080808AE
:102EA400080808080808080808080808080808089E
:102EB400080808080808080808080808080808088E
:102EC400080808080808080808080808080808087E
:102ED4000808080808080808080808080808080076
:00000001FF
